{
  "_format": "hh-sol-artifact-1",
  "contractName": "DarkForestCore",
  "sourceName": "contracts/DarkForestCore.sol",
  "abi": [
    {
      "anonymous": false,
      "inputs": [
        {
          "indexed": false,
          "internalType": "uint256",
          "name": "arrivalId",
          "type": "uint256"
        }
      ],
      "name": "ArrivalQueued",
      "type": "event"
    },
    {
      "anonymous": false,
      "inputs": [
        {
          "indexed": false,
          "internalType": "uint256",
          "name": "loc",
          "type": "uint256"
        }
      ],
      "name": "BoughtHat",
      "type": "event"
    },
    {
      "anonymous": false,
      "inputs": [
        {
          "indexed": false,
          "internalType": "uint8",
          "name": "version",
          "type": "uint8"
        }
      ],
      "name": "Initialized",
      "type": "event"
    },
    {
      "anonymous": false,
      "inputs": [
        {
          "indexed": false,
          "internalType": "bytes32",
          "name": "keyHash",
          "type": "bytes32"
        }
      ],
      "name": "KeyAdded",
      "type": "event"
    },
    {
      "anonymous": false,
      "inputs": [
        {
          "indexed": false,
          "internalType": "bytes32",
          "name": "keyHash",
          "type": "bytes32"
        },
        {
          "indexed": false,
          "internalType": "address",
          "name": "owner",
          "type": "address"
        }
      ],
      "name": "KeyUsed",
      "type": "event"
    },
    {
      "anonymous": false,
      "inputs": [
        {
          "indexed": false,
          "internalType": "uint256",
          "name": "loc",
          "type": "uint256"
        },
        {
          "indexed": false,
          "internalType": "address",
          "name": "player",
          "type": "address"
        }
      ],
      "name": "PlanetDelegated",
      "type": "event"
    },
    {
      "anonymous": false,
      "inputs": [
        {
          "indexed": false,
          "internalType": "uint256",
          "name": "loc",
          "type": "uint256"
        },
        {
          "indexed": false,
          "internalType": "address",
          "name": "player",
          "type": "address"
        }
      ],
      "name": "PlanetUndelegated",
      "type": "event"
    },
    {
      "anonymous": false,
      "inputs": [
        {
          "indexed": false,
          "internalType": "uint256",
          "name": "loc",
          "type": "uint256"
        }
      ],
      "name": "PlanetUpgraded",
      "type": "event"
    },
    {
      "anonymous": false,
      "inputs": [
        {
          "indexed": false,
          "internalType": "address",
          "name": "player",
          "type": "address"
        },
        {
          "indexed": false,
          "internalType": "uint256",
          "name": "loc",
          "type": "uint256"
        }
      ],
      "name": "PlayerInitialized",
      "type": "event"
    },
    {
      "anonymous": false,
      "inputs": [
        {
          "indexed": false,
          "internalType": "address",
          "name": "player",
          "type": "address"
        }
      ],
      "name": "PlayerRemovedFromWhitelist",
      "type": "event"
    },
    {
      "anonymous": false,
      "inputs": [
        {
          "indexed": false,
          "internalType": "address",
          "name": "player",
          "type": "address"
        }
      ],
      "name": "PlayerWhitelisted",
      "type": "event"
    },
    {
      "anonymous": false,
      "inputs": [
        {
          "indexed": false,
          "internalType": "bool",
          "name": "enabled",
          "type": "bool"
        }
      ],
      "name": "WhitelistStatusChanged",
      "type": "event"
    },
    {
      "inputs": [],
      "name": "DISABLE_ZK_CHECK",
      "outputs": [
        {
          "internalType": "bool",
          "name": "",
          "type": "bool"
        }
      ],
      "stateMutability": "view",
      "type": "function"
    },
    {
      "inputs": [],
      "name": "PERLIN_THRESHOLD_1",
      "outputs": [
        {
          "internalType": "uint256",
          "name": "",
          "type": "uint256"
        }
      ],
      "stateMutability": "view",
      "type": "function"
    },
    {
      "inputs": [],
      "name": "PERLIN_THRESHOLD_2",
      "outputs": [
        {
          "internalType": "uint256",
          "name": "",
          "type": "uint256"
        }
      ],
      "stateMutability": "view",
      "type": "function"
    },
    {
      "inputs": [],
      "name": "PLANET_RARITY",
      "outputs": [
        {
          "internalType": "uint256",
          "name": "",
          "type": "uint256"
        }
      ],
      "stateMutability": "view",
      "type": "function"
    },
    {
      "inputs": [],
      "name": "SILVER_RARITY_1",
      "outputs": [
        {
          "internalType": "uint256",
          "name": "",
          "type": "uint256"
        }
      ],
      "stateMutability": "view",
      "type": "function"
    },
    {
      "inputs": [],
      "name": "SILVER_RARITY_2",
      "outputs": [
        {
          "internalType": "uint256",
          "name": "",
          "type": "uint256"
        }
      ],
      "stateMutability": "view",
      "type": "function"
    },
    {
      "inputs": [],
      "name": "SILVER_RARITY_3",
      "outputs": [
        {
          "internalType": "uint256",
          "name": "",
          "type": "uint256"
        }
      ],
      "stateMutability": "view",
      "type": "function"
    },
    {
      "inputs": [],
      "name": "TIME_FACTOR_HUNDREDTHS",
      "outputs": [
        {
          "internalType": "uint256",
          "name": "",
          "type": "uint256"
        }
      ],
      "stateMutability": "view",
      "type": "function"
    },
    {
      "inputs": [
        {
          "internalType": "uint256",
          "name": "_loc",
          "type": "uint256"
        }
      ],
      "name": "_locationIdValid",
      "outputs": [
        {
          "internalType": "bool",
          "name": "",
          "type": "bool"
        }
      ],
      "stateMutability": "view",
      "type": "function"
    },
    {
      "inputs": [
        {
          "internalType": "bytes32[]",
          "name": "hashes",
          "type": "bytes32[]"
        }
      ],
      "name": "addKeys",
      "outputs": [],
      "stateMutability": "nonpayable",
      "type": "function"
    },
    {
      "inputs": [
        {
          "internalType": "address",
          "name": "player",
          "type": "address"
        }
      ],
      "name": "addToWhitelist",
      "outputs": [],
      "stateMutability": "nonpayable",
      "type": "function"
    },
    {
      "inputs": [
        {
          "internalType": "address[]",
          "name": "players",
          "type": "address[]"
        }
      ],
      "name": "addToWhitelistMultiple",
      "outputs": [],
      "stateMutability": "nonpayable",
      "type": "function"
    },
    {
      "inputs": [],
      "name": "adminAddress",
      "outputs": [
        {
          "internalType": "address",
          "name": "",
          "type": "address"
        }
      ],
      "stateMutability": "view",
      "type": "function"
    },
    {
      "inputs": [
        {
          "internalType": "uint256",
          "name": "startIdx",
          "type": "uint256"
        },
        {
          "internalType": "uint256",
          "name": "endIdx",
          "type": "uint256"
        }
      ],
      "name": "bulkGetPlanetArrivals",
      "outputs": [
        {
          "components": [
            {
              "internalType": "uint256",
              "name": "id",
              "type": "uint256"
            },
            {
              "internalType": "address",
              "name": "player",
              "type": "address"
            },
            {
              "internalType": "uint256",
              "name": "fromPlanet",
              "type": "uint256"
            },
            {
              "internalType": "uint256",
              "name": "toPlanet",
              "type": "uint256"
            },
            {
              "internalType": "uint256",
              "name": "popArriving",
              "type": "uint256"
            },
            {
              "internalType": "uint256",
              "name": "silverMoved",
              "type": "uint256"
            },
            {
              "internalType": "uint256",
              "name": "departureTime",
              "type": "uint256"
            },
            {
              "internalType": "uint256",
              "name": "arrivalTime",
              "type": "uint256"
            }
          ],
          "internalType": "struct DarkForestTypes.ArrivalData[][]",
          "name": "",
          "type": "tuple[][]"
        }
      ],
      "stateMutability": "view",
      "type": "function"
    },
    {
      "inputs": [
        {
          "internalType": "uint256",
          "name": "startIdx",
          "type": "uint256"
        },
        {
          "internalType": "uint256",
          "name": "endIdx",
          "type": "uint256"
        }
      ],
      "name": "bulkGetPlanetIds",
      "outputs": [
        {
          "internalType": "uint256[]",
          "name": "ret",
          "type": "uint256[]"
        }
      ],
      "stateMutability": "view",
      "type": "function"
    },
    {
      "inputs": [
        {
          "internalType": "uint256",
          "name": "startIdx",
          "type": "uint256"
        },
        {
          "internalType": "uint256",
          "name": "endIdx",
          "type": "uint256"
        }
      ],
      "name": "bulkGetPlanets",
      "outputs": [
        {
          "components": [
            {
              "internalType": "address",
              "name": "owner",
              "type": "address"
            },
            {
              "internalType": "uint256",
              "name": "range",
              "type": "uint256"
            },
            {
              "internalType": "uint256",
              "name": "speed",
              "type": "uint256"
            },
            {
              "internalType": "uint256",
              "name": "defense",
              "type": "uint256"
            },
            {
              "internalType": "uint256",
              "name": "population",
              "type": "uint256"
            },
            {
              "internalType": "uint256",
              "name": "populationCap",
              "type": "uint256"
            },
            {
              "internalType": "uint256",
              "name": "populationGrowth",
              "type": "uint256"
            },
            {
              "internalType": "enum DarkForestTypes.PlanetResource",
              "name": "planetResource",
              "type": "uint8"
            },
            {
              "internalType": "uint256",
              "name": "silverCap",
              "type": "uint256"
            },
            {
              "internalType": "uint256",
              "name": "silverGrowth",
              "type": "uint256"
            },
            {
              "internalType": "uint256",
              "name": "silver",
              "type": "uint256"
            },
            {
              "internalType": "uint256",
              "name": "planetLevel",
              "type": "uint256"
            }
          ],
          "internalType": "struct DarkForestTypes.Planet[]",
          "name": "ret",
          "type": "tuple[]"
        }
      ],
      "stateMutability": "view",
      "type": "function"
    },
    {
      "inputs": [
        {
          "internalType": "uint256",
          "name": "startIdx",
          "type": "uint256"
        },
        {
          "internalType": "uint256",
          "name": "endIdx",
          "type": "uint256"
        }
      ],
      "name": "bulkGetPlanetsExtendedInfo",
      "outputs": [
        {
          "components": [
            {
              "internalType": "bool",
              "name": "isInitialized",
              "type": "bool"
            },
            {
              "internalType": "uint256",
              "name": "createdAt",
              "type": "uint256"
            },
            {
              "internalType": "uint256",
              "name": "lastUpdated",
              "type": "uint256"
            },
            {
              "internalType": "uint256",
              "name": "perlin",
              "type": "uint256"
            },
            {
              "internalType": "enum DarkForestTypes.SpaceType",
              "name": "spaceType",
              "type": "uint8"
            },
            {
              "internalType": "uint256",
              "name": "upgradeState0",
              "type": "uint256"
            },
            {
              "internalType": "uint256",
              "name": "upgradeState1",
              "type": "uint256"
            },
            {
              "internalType": "uint256",
              "name": "upgradeState2",
              "type": "uint256"
            },
            {
              "internalType": "uint256",
              "name": "hatLevel",
              "type": "uint256"
            },
            {
              "internalType": "address[]",
              "name": "delegatedPlayers",
              "type": "address[]"
            }
          ],
          "internalType": "struct DarkForestTypes.PlanetExtendedInfo[]",
          "name": "ret",
          "type": "tuple[]"
        }
      ],
      "stateMutability": "view",
      "type": "function"
    },
    {
      "inputs": [
        {
          "internalType": "uint256",
          "name": "startIdx",
          "type": "uint256"
        },
        {
          "internalType": "uint256",
          "name": "endIdx",
          "type": "uint256"
        }
      ],
      "name": "bulkGetPlayers",
      "outputs": [
        {
          "internalType": "address[]",
          "name": "ret",
          "type": "address[]"
        }
      ],
      "stateMutability": "view",
      "type": "function"
    },
    {
      "inputs": [
        {
          "internalType": "uint256",
          "name": "_location",
          "type": "uint256"
        }
      ],
      "name": "buyHat",
      "outputs": [],
      "stateMutability": "payable",
      "type": "function"
    },
    {
      "inputs": [
        {
          "internalType": "address",
          "name": "_newAdmin",
          "type": "address"
        }
      ],
      "name": "changeAdmin",
      "outputs": [],
      "stateMutability": "nonpayable",
      "type": "function"
    },
    {
      "inputs": [
        {
          "internalType": "uint256",
          "name": "_newGameEnd",
          "type": "uint256"
        }
      ],
      "name": "changeGameEndTime",
      "outputs": [],
      "stateMutability": "nonpayable",
      "type": "function"
    },
    {
      "inputs": [
        {
          "internalType": "uint256",
          "name": "_newConstant",
          "type": "uint256"
        }
      ],
      "name": "changeTarget4RadiusConstant",
      "outputs": [],
      "stateMutability": "nonpayable",
      "type": "function"
    },
    {
      "inputs": [
        {
          "internalType": "uint256",
          "name": "_newConstant",
          "type": "uint256"
        }
      ],
      "name": "changeTarget5RadiusConstant",
      "outputs": [],
      "stateMutability": "nonpayable",
      "type": "function"
    },
    {
      "inputs": [
        {
          "internalType": "uint256",
          "name": "",
          "type": "uint256"
        }
      ],
      "name": "cumulativeRarities",
      "outputs": [
        {
          "internalType": "uint256",
          "name": "",
          "type": "uint256"
        }
      ],
      "stateMutability": "view",
      "type": "function"
    },
    {
      "inputs": [
        {
          "internalType": "uint256",
          "name": "_location",
          "type": "uint256"
        },
        {
          "internalType": "address",
          "name": "_player",
          "type": "address"
        }
      ],
      "name": "delegatePlanet",
      "outputs": [],
      "stateMutability": "nonpayable",
      "type": "function"
    },
    {
      "inputs": [],
      "name": "getDefaultStats",
      "outputs": [
        {
          "components": [
            {
              "internalType": "string",
              "name": "label",
              "type": "string"
            },
            {
              "internalType": "uint256",
              "name": "populationCap",
              "type": "uint256"
            },
            {
              "internalType": "uint256",
              "name": "populationGrowth",
              "type": "uint256"
            },
            {
              "internalType": "uint256",
              "name": "range",
              "type": "uint256"
            },
            {
              "internalType": "uint256",
              "name": "speed",
              "type": "uint256"
            },
            {
              "internalType": "uint256",
              "name": "defense",
              "type": "uint256"
            },
            {
              "internalType": "uint256",
              "name": "silverGrowth",
              "type": "uint256"
            },
            {
              "internalType": "uint256",
              "name": "silverCap",
              "type": "uint256"
            },
            {
              "internalType": "uint256",
              "name": "barbarianPercentage",
              "type": "uint256"
            }
          ],
          "internalType": "struct DarkForestTypes.PlanetDefaultStats[]",
          "name": "",
          "type": "tuple[]"
        }
      ],
      "stateMutability": "view",
      "type": "function"
    },
    {
      "inputs": [],
      "name": "getNAllowed",
      "outputs": [
        {
          "internalType": "uint256",
          "name": "",
          "type": "uint256"
        }
      ],
      "stateMutability": "view",
      "type": "function"
    },
    {
      "inputs": [],
      "name": "getNPlanets",
      "outputs": [
        {
          "internalType": "uint256",
          "name": "",
          "type": "uint256"
        }
      ],
      "stateMutability": "view",
      "type": "function"
    },
    {
      "inputs": [],
      "name": "getNPlayers",
      "outputs": [
        {
          "internalType": "uint256",
          "name": "",
          "type": "uint256"
        }
      ],
      "stateMutability": "view",
      "type": "function"
    },
    {
      "inputs": [
        {
          "internalType": "uint256",
          "name": "_location",
          "type": "uint256"
        }
      ],
      "name": "getPlanetArrivals",
      "outputs": [
        {
          "components": [
            {
              "internalType": "uint256",
              "name": "id",
              "type": "uint256"
            },
            {
              "internalType": "address",
              "name": "player",
              "type": "address"
            },
            {
              "internalType": "uint256",
              "name": "fromPlanet",
              "type": "uint256"
            },
            {
              "internalType": "uint256",
              "name": "toPlanet",
              "type": "uint256"
            },
            {
              "internalType": "uint256",
              "name": "popArriving",
              "type": "uint256"
            },
            {
              "internalType": "uint256",
              "name": "silverMoved",
              "type": "uint256"
            },
            {
              "internalType": "uint256",
              "name": "departureTime",
              "type": "uint256"
            },
            {
              "internalType": "uint256",
              "name": "arrivalTime",
              "type": "uint256"
            }
          ],
          "internalType": "struct DarkForestTypes.ArrivalData[]",
          "name": "ret",
          "type": "tuple[]"
        }
      ],
      "stateMutability": "view",
      "type": "function"
    },
    {
      "inputs": [],
      "name": "getPlanetCounts",
      "outputs": [
        {
          "internalType": "uint256[]",
          "name": "",
          "type": "uint256[]"
        }
      ],
      "stateMutability": "view",
      "type": "function"
    },
    {
      "inputs": [],
      "name": "getPlanetCumulativeRarities",
      "outputs": [
        {
          "internalType": "uint256[]",
          "name": "",
          "type": "uint256[]"
        }
      ],
      "stateMutability": "view",
      "type": "function"
    },
    {
      "inputs": [],
      "name": "getPlanetLevelThresholds",
      "outputs": [
        {
          "internalType": "uint256[]",
          "name": "",
          "type": "uint256[]"
        }
      ],
      "stateMutability": "view",
      "type": "function"
    },
    {
      "inputs": [],
      "name": "getUpgrades",
      "outputs": [
        {
          "components": [
            {
              "internalType": "uint256",
              "name": "popCapMultiplier",
              "type": "uint256"
            },
            {
              "internalType": "uint256",
              "name": "popGroMultiplier",
              "type": "uint256"
            },
            {
              "internalType": "uint256",
              "name": "rangeMultiplier",
              "type": "uint256"
            },
            {
              "internalType": "uint256",
              "name": "speedMultiplier",
              "type": "uint256"
            },
            {
              "internalType": "uint256",
              "name": "defMultiplier",
              "type": "uint256"
            }
          ],
          "internalType": "struct DarkForestTypes.Upgrade[4][3]",
          "name": "",
          "type": "tuple[4][3]"
        }
      ],
      "stateMutability": "view",
      "type": "function"
    },
    {
      "inputs": [
        {
          "components": [
            {
              "internalType": "address",
              "name": "adminAddress",
              "type": "address"
            },
            {
              "internalType": "bool",
              "name": "whitelistEnabled",
              "type": "bool"
            },
            {
              "internalType": "bool",
              "name": "paused",
              "type": "bool"
            },
            {
              "internalType": "bool",
              "name": "DISABLE_ZK_CHECK",
              "type": "bool"
            },
            {
              "internalType": "uint256",
              "name": "TIME_FACTOR_HUNDREDTHS",
              "type": "uint256"
            },
            {
              "internalType": "uint256",
              "name": "PERLIN_THRESHOLD_1",
              "type": "uint256"
            },
            {
              "internalType": "uint256",
              "name": "PERLIN_THRESHOLD_2",
              "type": "uint256"
            },
            {
              "internalType": "uint256",
              "name": "PLANET_RARITY",
              "type": "uint256"
            },
            {
              "internalType": "uint256",
              "name": "SILVER_RARITY_1",
              "type": "uint256"
            },
            {
              "internalType": "uint256",
              "name": "SILVER_RARITY_2",
              "type": "uint256"
            },
            {
              "internalType": "uint256",
              "name": "SILVER_RARITY_3",
              "type": "uint256"
            },
            {
              "internalType": "uint256[]",
              "name": "planetLevelThresholds",
              "type": "uint256[]"
            },
            {
              "internalType": "uint256",
              "name": "gameEndTimestamp",
              "type": "uint256"
            },
            {
              "internalType": "uint256",
              "name": "target4RadiusConstant",
              "type": "uint256"
            },
            {
              "internalType": "uint256",
              "name": "target5RadiusConstant",
              "type": "uint256"
            }
          ],
          "internalType": "struct DarkForestTypes.DarkForestGameConfig",
          "name": "_gameConfig",
          "type": "tuple"
        }
      ],
      "name": "init",
      "outputs": [],
      "stateMutability": "nonpayable",
      "type": "function"
    },
    {
      "inputs": [
        {
          "internalType": "address",
          "name": "_adminAddress",
          "type": "address"
        },
        {
          "internalType": "bool",
          "name": "_whitelistEnabled",
          "type": "bool"
        },
        {
          "internalType": "bool",
          "name": "_disableZKCheck",
          "type": "bool"
        }
      ],
      "name": "initialize",
      "outputs": [],
      "stateMutability": "nonpayable",
      "type": "function"
    },
    {
      "inputs": [
        {
          "internalType": "uint256[2]",
          "name": "_a",
          "type": "uint256[2]"
        },
        {
          "internalType": "uint256[2][2]",
          "name": "_b",
          "type": "uint256[2][2]"
        },
        {
          "internalType": "uint256[2]",
          "name": "_c",
          "type": "uint256[2]"
        },
        {
          "internalType": "uint256[3]",
          "name": "_input",
          "type": "uint256[3]"
        }
      ],
      "name": "initializePlayer",
      "outputs": [
        {
          "internalType": "uint256",
          "name": "",
          "type": "uint256"
        }
      ],
      "stateMutability": "nonpayable",
      "type": "function"
    },
    {
      "inputs": [
        {
          "internalType": "uint256",
          "name": "",
          "type": "uint256"
        }
      ],
      "name": "initializedPlanetCountByLevel",
      "outputs": [
        {
          "internalType": "uint256",
          "name": "",
          "type": "uint256"
        }
      ],
      "stateMutability": "view",
      "type": "function"
    },
    {
      "inputs": [
        {
          "internalType": "uint256",
          "name": "_location",
          "type": "uint256"
        },
        {
          "internalType": "address",
          "name": "_player",
          "type": "address"
        }
      ],
      "name": "isDelegated",
      "outputs": [
        {
          "internalType": "bool",
          "name": "",
          "type": "bool"
        }
      ],
      "stateMutability": "view",
      "type": "function"
    },
    {
      "inputs": [
        {
          "internalType": "string",
          "name": "key",
          "type": "string"
        }
      ],
      "name": "isKeyValid",
      "outputs": [
        {
          "internalType": "bool",
          "name": "",
          "type": "bool"
        }
      ],
      "stateMutability": "view",
      "type": "function"
    },
    {
      "inputs": [
        {
          "internalType": "address",
          "name": "",
          "type": "address"
        }
      ],
      "name": "isPlayerInitialized",
      "outputs": [
        {
          "internalType": "bool",
          "name": "",
          "type": "bool"
        }
      ],
      "stateMutability": "view",
      "type": "function"
    },
    {
      "inputs": [
        {
          "internalType": "address",
          "name": "_addr",
          "type": "address"
        }
      ],
      "name": "isWhitelisted",
      "outputs": [
        {
          "internalType": "bool",
          "name": "",
          "type": "bool"
        }
      ],
      "stateMutability": "view",
      "type": "function"
    },
    {
      "inputs": [
        {
          "internalType": "uint256[2]",
          "name": "_a",
          "type": "uint256[2]"
        },
        {
          "internalType": "uint256[2][2]",
          "name": "_b",
          "type": "uint256[2][2]"
        },
        {
          "internalType": "uint256[2]",
          "name": "_c",
          "type": "uint256[2]"
        },
        {
          "internalType": "uint256[7]",
          "name": "_input",
          "type": "uint256[7]"
        }
      ],
      "name": "move",
      "outputs": [
        {
          "internalType": "uint256",
          "name": "",
          "type": "uint256"
        }
      ],
      "stateMutability": "nonpayable",
      "type": "function"
    },
    {
      "inputs": [],
      "name": "pause",
      "outputs": [],
      "stateMutability": "nonpayable",
      "type": "function"
    },
    {
      "inputs": [],
      "name": "paused",
      "outputs": [
        {
          "internalType": "bool",
          "name": "",
          "type": "bool"
        }
      ],
      "stateMutability": "view",
      "type": "function"
    },
    {
      "inputs": [
        {
          "internalType": "uint256",
          "name": "",
          "type": "uint256"
        }
      ],
      "name": "planetArrivals",
      "outputs": [
        {
          "internalType": "uint256",
          "name": "id",
          "type": "uint256"
        },
        {
          "internalType": "address",
          "name": "player",
          "type": "address"
        },
        {
          "internalType": "uint256",
          "name": "fromPlanet",
          "type": "uint256"
        },
        {
          "internalType": "uint256",
          "name": "toPlanet",
          "type": "uint256"
        },
        {
          "internalType": "uint256",
          "name": "popArriving",
          "type": "uint256"
        },
        {
          "internalType": "uint256",
          "name": "silverMoved",
          "type": "uint256"
        },
        {
          "internalType": "uint256",
          "name": "departureTime",
          "type": "uint256"
        },
        {
          "internalType": "uint256",
          "name": "arrivalTime",
          "type": "uint256"
        }
      ],
      "stateMutability": "view",
      "type": "function"
    },
    {
      "inputs": [
        {
          "internalType": "uint256",
          "name": "",
          "type": "uint256"
        }
      ],
      "name": "planetDefaultStats",
      "outputs": [
        {
          "internalType": "string",
          "name": "label",
          "type": "string"
        },
        {
          "internalType": "uint256",
          "name": "populationCap",
          "type": "uint256"
        },
        {
          "internalType": "uint256",
          "name": "populationGrowth",
          "type": "uint256"
        },
        {
          "internalType": "uint256",
          "name": "range",
          "type": "uint256"
        },
        {
          "internalType": "uint256",
          "name": "speed",
          "type": "uint256"
        },
        {
          "internalType": "uint256",
          "name": "defense",
          "type": "uint256"
        },
        {
          "internalType": "uint256",
          "name": "silverGrowth",
          "type": "uint256"
        },
        {
          "internalType": "uint256",
          "name": "silverCap",
          "type": "uint256"
        },
        {
          "internalType": "uint256",
          "name": "barbarianPercentage",
          "type": "uint256"
        }
      ],
      "stateMutability": "view",
      "type": "function"
    },
    {
      "inputs": [
        {
          "internalType": "uint256",
          "name": "",
          "type": "uint256"
        },
        {
          "internalType": "uint256",
          "name": "",
          "type": "uint256"
        }
      ],
      "name": "planetEvents",
      "outputs": [
        {
          "internalType": "uint256",
          "name": "id",
          "type": "uint256"
        },
        {
          "internalType": "enum DarkForestTypes.PlanetEventType",
          "name": "eventType",
          "type": "uint8"
        },
        {
          "internalType": "uint256",
          "name": "timeTrigger",
          "type": "uint256"
        },
        {
          "internalType": "uint256",
          "name": "timeAdded",
          "type": "uint256"
        }
      ],
      "stateMutability": "view",
      "type": "function"
    },
    {
      "inputs": [],
      "name": "planetEventsCount",
      "outputs": [
        {
          "internalType": "uint256",
          "name": "",
          "type": "uint256"
        }
      ],
      "stateMutability": "view",
      "type": "function"
    },
    {
      "inputs": [
        {
          "internalType": "uint256",
          "name": "",
          "type": "uint256"
        }
      ],
      "name": "planetIds",
      "outputs": [
        {
          "internalType": "uint256",
          "name": "",
          "type": "uint256"
        }
      ],
      "stateMutability": "view",
      "type": "function"
    },
    {
      "inputs": [
        {
          "internalType": "uint256",
          "name": "",
          "type": "uint256"
        }
      ],
      "name": "planetLevelThresholds",
      "outputs": [
        {
          "internalType": "uint256",
          "name": "",
          "type": "uint256"
        }
      ],
      "stateMutability": "view",
      "type": "function"
    },
    {
      "inputs": [
        {
          "internalType": "uint256",
          "name": "",
          "type": "uint256"
        }
      ],
      "name": "planets",
      "outputs": [
        {
          "internalType": "address",
          "name": "owner",
          "type": "address"
        },
        {
          "internalType": "uint256",
          "name": "range",
          "type": "uint256"
        },
        {
          "internalType": "uint256",
          "name": "speed",
          "type": "uint256"
        },
        {
          "internalType": "uint256",
          "name": "defense",
          "type": "uint256"
        },
        {
          "internalType": "uint256",
          "name": "population",
          "type": "uint256"
        },
        {
          "internalType": "uint256",
          "name": "populationCap",
          "type": "uint256"
        },
        {
          "internalType": "uint256",
          "name": "populationGrowth",
          "type": "uint256"
        },
        {
          "internalType": "enum DarkForestTypes.PlanetResource",
          "name": "planetResource",
          "type": "uint8"
        },
        {
          "internalType": "uint256",
          "name": "silverCap",
          "type": "uint256"
        },
        {
          "internalType": "uint256",
          "name": "silverGrowth",
          "type": "uint256"
        },
        {
          "internalType": "uint256",
          "name": "silver",
          "type": "uint256"
        },
        {
          "internalType": "uint256",
          "name": "planetLevel",
          "type": "uint256"
        }
      ],
      "stateMutability": "view",
      "type": "function"
    },
    {
      "inputs": [
        {
          "internalType": "uint256",
          "name": "",
          "type": "uint256"
        }
      ],
      "name": "planetsExtendedInfo",
      "outputs": [
        {
          "internalType": "bool",
          "name": "isInitialized",
          "type": "bool"
        },
        {
          "internalType": "uint256",
          "name": "createdAt",
          "type": "uint256"
        },
        {
          "internalType": "uint256",
          "name": "lastUpdated",
          "type": "uint256"
        },
        {
          "internalType": "uint256",
          "name": "perlin",
          "type": "uint256"
        },
        {
          "internalType": "enum DarkForestTypes.SpaceType",
          "name": "spaceType",
          "type": "uint8"
        },
        {
          "internalType": "uint256",
          "name": "upgradeState0",
          "type": "uint256"
        },
        {
          "internalType": "uint256",
          "name": "upgradeState1",
          "type": "uint256"
        },
        {
          "internalType": "uint256",
          "name": "upgradeState2",
          "type": "uint256"
        },
        {
          "internalType": "uint256",
          "name": "hatLevel",
          "type": "uint256"
        }
      ],
      "stateMutability": "view",
      "type": "function"
    },
    {
      "inputs": [
        {
          "internalType": "uint256",
          "name": "",
          "type": "uint256"
        }
      ],
      "name": "playerIds",
      "outputs": [
        {
          "internalType": "address",
          "name": "",
          "type": "address"
        }
      ],
      "stateMutability": "view",
      "type": "function"
    },
    {
      "inputs": [
        {
          "internalType": "uint256",
          "name": "_location",
          "type": "uint256"
        }
      ],
      "name": "refreshPlanet",
      "outputs": [],
      "stateMutability": "nonpayable",
      "type": "function"
    },
    {
      "inputs": [
        {
          "internalType": "address",
          "name": "toRemove",
          "type": "address"
        }
      ],
      "name": "removeFromWhitelist",
      "outputs": [],
      "stateMutability": "nonpayable",
      "type": "function"
    },
    {
      "inputs": [
        {
          "internalType": "bool",
          "name": "_enabled",
          "type": "bool"
        }
      ],
      "name": "setWhitelistEnabled",
      "outputs": [],
      "stateMutability": "nonpayable",
      "type": "function"
    },
    {
      "inputs": [
        {
          "internalType": "uint256",
          "name": "_location",
          "type": "uint256"
        },
        {
          "internalType": "address",
          "name": "_player",
          "type": "address"
        }
      ],
      "name": "undelegatePlanet",
      "outputs": [],
      "stateMutability": "nonpayable",
      "type": "function"
    },
    {
      "inputs": [],
      "name": "unpause",
      "outputs": [],
      "stateMutability": "nonpayable",
      "type": "function"
    },
    {
      "inputs": [
        {
          "internalType": "uint256",
          "name": "_location",
          "type": "uint256"
        },
        {
          "internalType": "uint256",
          "name": "_branch",
          "type": "uint256"
        }
      ],
      "name": "upgradePlanet",
      "outputs": [
        {
          "internalType": "uint256",
          "name": "",
          "type": "uint256"
        },
        {
          "internalType": "uint256",
          "name": "",
          "type": "uint256"
        }
      ],
      "stateMutability": "nonpayable",
      "type": "function"
    },
    {
      "inputs": [
        {
          "internalType": "uint256",
          "name": "",
          "type": "uint256"
        },
        {
          "internalType": "uint256",
          "name": "",
          "type": "uint256"
        }
      ],
      "name": "upgrades",
      "outputs": [
        {
          "internalType": "uint256",
          "name": "popCapMultiplier",
          "type": "uint256"
        },
        {
          "internalType": "uint256",
          "name": "popGroMultiplier",
          "type": "uint256"
        },
        {
          "internalType": "uint256",
          "name": "rangeMultiplier",
          "type": "uint256"
        },
        {
          "internalType": "uint256",
          "name": "speedMultiplier",
          "type": "uint256"
        },
        {
          "internalType": "uint256",
          "name": "defMultiplier",
          "type": "uint256"
        }
      ],
      "stateMutability": "view",
      "type": "function"
    },
    {
      "inputs": [
        {
          "internalType": "string",
          "name": "key",
          "type": "string"
        },
        {
          "internalType": "address",
          "name": "owner",
          "type": "address"
        }
      ],
      "name": "useKey",
      "outputs": [],
      "stateMutability": "nonpayable",
      "type": "function"
    },
    {
      "inputs": [],
      "name": "withdraw",
      "outputs": [],
      "stateMutability": "nonpayable",
      "type": "function"
    },
    {
      "inputs": [],
      "name": "worldRadius",
      "outputs": [
        {
          "internalType": "uint256",
          "name": "",
          "type": "uint256"
        }
      ],
      "stateMutability": "view",
      "type": "function"
    }
  ],
  "bytecode": "0x6080604052610190600155600f600255601160035561177060045560086005556008600655600460075534801561003557600080fd5b50615a2680620000466000396000f3fe6080604052600436106103c35760003560e01c80638456cb59116101f2578063bb4908f21161010d578063d8d5fc87116100a0578063e43252d71161006f578063e43252d714610d05578063f6e46b6014610d25578063fc6f946814610d3b578063fe80bb1214610d6157600080fd5b8063d8d5fc8714610c82578063d9589b1e14610ca2578063dacb613514610cc2578063de2edb9114610cef57600080fd5b8063c8d503ea116100dc578063c8d503ea14610b79578063c935949114610b99578063ccf738e914610be1578063d6127ab414610c6257600080fd5b8063bb4908f214610b01578063c012b11214610b17578063c175559b14610b4f578063c68b812614610b6457600080fd5b8063975de61311610185578063ad48909111610154578063ad48909114610a77578063ae3f861914610a97578063b5549e6414610aac578063badaad2a14610ae157600080fd5b8063975de613146109e75780639fd4d4d414610a14578063aaca42e914610a27578063ab23032114610a4757600080fd5b80638f283970116101c15780638f283970146109575780638fe6677d146109775780639184f0b614610997578063943db214146109c757600080fd5b80638456cb59146108ec5780638a05b329146109015780638ab1d681146109165780638af9d5621461093657600080fd5b80633ccfd60b116102e25780636c7ffeec1161027557806376af38b41161024457806376af38b4146107ec57806378d1742b1461089757806378d4ce95146108ac5780638151e1d2146108cc57600080fd5b80636c7ffeec1461075e5780636df0a9061461078b57806373a85381146107a157806374b99106146107d657600080fd5b80634eb0e959116102b15780634eb0e959146106e557806352f666a7146106fb5780635c975abb1461071b578063695bd00c1461073c57600080fd5b80633ccfd60b1461066e5780633f324cf3146106835780633f4ba83a146106a357806340a72788146106b857600080fd5b80630af807781161035a5780631f2836b7116103295780631f2836b71461055e578063221f77641461057e57806326c1e7501461059e5780633af32abf1461063e57600080fd5b80630af80778146104e857806310d4abf214610508578063188caf8a146105285780631e4abc3a1461054857600080fd5b80630767751a116103965780630767751a1461046257806308ae86141461048257806308d2e95a146104a25780630ad98d41146104c457600080fd5b8063039e4e74146103c857806304d74a39146103ea578063052d9e7e1461042057806305b86be514610440575b600080fd5b3480156103d457600080fd5b506103e86103e336600461493e565b610d77565b005b3480156103f657600080fd5b5061040a610405366004614957565b610dcf565b60405161041791906149e8565b60405180910390f35b34801561042c57600080fd5b506103e861043b366004614add565b610fa8565b34801561044c57600080fd5b5061045561103e565b6040516104179190614afa565b34801561046e57600080fd5b506103e861047d36600461493e565b611096565b34801561048e57600080fd5b506103e861049d366004614b55565b6110e9565b3480156104ae57600080fd5b506104b761142f565b6040516104179190614bd1565b3480156104d057600080fd5b506104da60055481565b604051908152602001610417565b3480156104f457600080fd5b506104da610503366004614db7565b611624565b34801561051457600080fd5b506104da61052336600461493e565b611a04565b34801561053457600080fd5b506103e8610543366004614e93565b611a25565b34801561055457600080fd5b506104da60065481565b34801561056a57600080fd5b506104da61057936600461493e565b611b38565b34801561058a57600080fd5b506104da61059936600461493e565b611b48565b3480156105aa57600080fd5b506106266105b936600461493e565b604f60205260009081526040902080546001820154600283015460038401546004850154600586015460068701546007880154600889015460098a0154600a8b0154600b909b01546001600160a01b03909a169a98999798969795969495939460ff90931693919290918c565b6040516104179c9b9a99989796959493929190614f39565b34801561064a57600080fd5b5061065e610659366004614fac565b611b58565b6040519015158152602001610417565b34801561067a57600080fd5b506103e8611b8c565b34801561068f57600080fd5b506103e861069e36600461493e565b611c09565b3480156106af57600080fd5b506103e8611d87565b3480156106c457600080fd5b506106d86106d3366004614957565b611e3d565b604051610417919061504a565b3480156106f157600080fd5b506104da604d5481565b34801561070757600080fd5b5061065e610716366004614b55565b611f01565b34801561072757600080fd5b5060005461065e90600160b01b900460ff1681565b34801561074857600080fd5b50610751611fae565b60405161041791906150ae565b34801561076a57600080fd5b5061077e610779366004614957565b61205e565b6040516104179190615137565b34801561079757600080fd5b506104da60035481565b3480156107ad57600080fd5b506107c16107bc366004614957565b61211b565b60408051928352602083019190915201610417565b3480156107e257600080fd5b506104da60075481565b3480156107f857600080fd5b5061085461080736600461493e565b6053602052600090815260409020805460018201546002830154600384015460048501546005860154600687015460079097015495966001600160a01b0390951695939492939192909188565b604080519889526001600160a01b039097166020890152958701949094526060860192909252608085015260a084015260c083015260e082015261010001610417565b3480156108a357600080fd5b50610455612295565b3480156108b857600080fd5b506104da6108c7366004615178565b6122eb565b3480156108d857600080fd5b506103e86108e736600461493e565b612786565b3480156108f857600080fd5b506103e86127d9565b34801561090d57600080fd5b50604c546104da565b34801561092257600080fd5b506103e8610931366004614fac565b612896565b34801561094257600080fd5b5060005461065e90600160b81b900460ff1681565b34801561096357600080fd5b506103e8610972366004614fac565b612ac8565b34801561098357600080fd5b506103e86109923660046151ed565b612bac565b3480156109a357600080fd5b5061065e6109b2366004614fac565b60516020526000908152604090205460ff1681565b3480156109d357600080fd5b506103e86109e23660046152cc565b612d6d565b3480156109f357600080fd5b50610a07610a02366004614957565b613129565b60405161041791906153f1565b6103e8610a2236600461493e565b6132c9565b348015610a3357600080fd5b50610455610a42366004614957565b613492565b348015610a5357600080fd5b50610a67610a62366004614957565b61353a565b60405161041794939291906154bd565b348015610a8357600080fd5b506104da610a9236600461493e565b613583565b348015610aa357600080fd5b50610455613593565b348015610ab857600080fd5b50610acc610ac736600461493e565b6135e9565b604051610417999897969594939291906154ef565b348015610aed57600080fd5b506103e8610afc3660046155b3565b6136cf565b348015610b0d57600080fd5b506104da604e5481565b348015610b2357600080fd5b50610b37610b3236600461493e565b613900565b6040516001600160a01b039091168152602001610417565b348015610b5b57600080fd5b506057546104da565b348015610b7057600080fd5b50604b546104da565b348015610b8557600080fd5b5061065e610b9436600461493e565b61392a565b348015610ba557600080fd5b50610bb9610bb4366004614957565b613962565b604080519586526020860194909452928401919091526060830152608082015260a001610417565b348015610bed57600080fd5b50610c4d610bfc36600461493e565b60506020526000908152604090208054600182015460028301546003840154600485015460058601546006870154600788015460089098015460ff9788169896979596949590931693919290919089565b604051610417999897969594939291906155f8565b348015610c6e57600080fd5b506103e8610c7d366004614b55565b6139aa565b348015610c8e57600080fd5b5061065e610c9d36600461564c565b613bd4565b348015610cae57600080fd5b506103e8610cbd366004615689565b613c17565b348015610cce57600080fd5b50610ce2610cdd36600461493e565b613fa2565b60405161041791906156d2565b348015610cfb57600080fd5b506104da60045481565b348015610d1157600080fd5b506103e8610d20366004614fac565b614217565b348015610d3157600080fd5b506104da60015481565b348015610d4757600080fd5b50600054610b37906201000090046001600160a01b031681565b348015610d6d57600080fd5b506104da60025481565b6000546201000090046001600160a01b03163314610dca5760405162461bcd60e51b815260206004820152601b60248201526000805160206159d183398151915260448201526064015b60405180910390fd5b604a55565b6060610ddb83836156fb565b67ffffffffffffffff811115610df357610df3614c84565b604051908082528060200260200182016040528015610e2c57816020015b610e196146f6565b815260200190600190039081610e115790505b509050825b82811015610fa15760506000604b8381548110610e5057610e5061570e565b90600052602060002001548152602001908152602001600020604051806101400160405290816000820160009054906101000a900460ff161515151581526020016001820154815260200160028201548152602001600382015481526020016004820160009054906101000a900460ff166002811115610ed257610ed2614979565b6002811115610ee357610ee3614979565b81526020016005820154815260200160068201548152602001600782015481526020016008820154815260200160098201805480602002602001604051908101604052809291908181526020018280548015610f6857602002820191906000526020600020905b81546001600160a01b03168152600190910190602001808311610f4a575b505050505081525050828583610f7e91906156fb565b81518110610f8e57610f8e61570e565b6020908102919091010152600101610e31565b5092915050565b6000546201000090046001600160a01b03163314610ff65760405162461bcd60e51b815260206004820152601b60248201526000805160206159d18339815191526044820152606401610dc1565b6054805460ff19168215159081179091556040519081527f1cf28b997975c7be355bcef74f2f5019aa48253bc1e54b3c8b002471865fdba8906020015b60405180910390a150565b6060600880548060200260200160405190810160405280929190818152602001828054801561108c57602002820191906000526020600020905b815481526020019060010190808311611078575b5050505050905090565b6000546201000090046001600160a01b031633146110e45760405162461bcd60e51b815260206004820152601b60248201526000805160206159d18339815191526044820152606401610dc1565b604955565b600054600160b01b900460ff16156111345760405162461bcd60e51b815260206004820152600e60248201526d11d85b59481a5cc81c185d5cd95960921b6044820152606401610dc1565b60485442106111775760405162461bcd60e51b815260206004820152600f60248201526e11d85b59481a185d9948195b991959608a1b6044820152606401610dc1565b60008281526050602052604090205460ff1615156001146111da5760405162461bcd60e51b815260206004820152601960248201527f506c616e6574206973206e6f7420696e697469616c697a6564000000000000006044820152606401610dc1565b6111e382611c09565b6000828152604f60205260409020546001600160a01b031633146112495760405162461bcd60e51b815260206004820152601e60248201527f4f6e6c79206f776e65722063616e2064656c656761746520706c616e657400006044820152606401610dc1565b6112538282611f01565b61129f5760405162461bcd60e51b815260206004820152601760248201527f506c616e6574206973206e6f742064656c6567617465640000000000000000006044820152606401610dc1565b60005b60008381526050602052604090206009015481101561142a5760008381526050602052604090206009018054829081106112de576112de61570e565b6000918252602090912001546001600160a01b0390811690831603611422576000838152605060205260409020600901805461131c906001906156fb565b8154811061132c5761132c61570e565b60009182526020808320909101548583526050909152604090912060090180546001600160a01b0390921691839081106113685761136861570e565b600091825260208083209190910180546001600160a01b0319166001600160a01b0394909416939093179092558481526050909152604090206009018054806113b3576113b3615724565b600082815260209020810160001990810180546001600160a01b03191690550190556040517f28c5d715b75d0b08d684e1ae26b95d8ff180d05ae50321619ee116e9b88164ed9061141990859085909182526001600160a01b0316602082015260400190565b60405180910390a15b6001016112a2565b505050565b60085460609060009067ffffffffffffffff81111561145057611450614c84565b6040519080825280602002602001820160405280156114d057816020015b6114bd6040518061012001604052806060815260200160008152602001600081526020016000815260200160008152602001600081526020016000815260200160008152602001600081525090565b81526020019060019003908161146e5790505b50905060005b60085481101561161e57600b81815481106114f3576114f361570e565b90600052602060002090600902016040518061012001604052908160008201805461151d9061573a565b80601f01602080910402602001604051908101604052809291908181526020018280546115499061573a565b80156115965780601f1061156b57610100808354040283529160200191611596565b820191906000526020600020905b81548152906001019060200180831161157957829003601f168201915b50505050508152602001600182015481526020016002820154815260200160038201548152602001600482015481526020016005820154815260200160068201548152602001600782015481526020016008820154815250508282815181106116015761160161570e565b602090810291909101015261161760018261576e565b90506114d6565b50919050565b60008054600160b01b900460ff16156116705760405162461bcd60e51b815260206004820152600e60248201526d11d85b59481a5cc81c185d5cd95960921b6044820152606401610dc1565b60485442106116b35760405162461bcd60e51b815260206004820152600f60248201526e11d85b59481a185d9948195b991959608a1b6044820152606401610dc1565b8151602083015160408401516060850151608086015160a087015160c0880151600054600160b81b900460ff166117db5760006040518060a0016040528089815260200188815260200187815260200186815260200185815250905073__$6b78ae7bf09e0e72535be6401663f3a543$__63275abc628e8e8e856040518563ffffffff1660e01b815260040161174c94939291906157d2565b602060405180830381865af4158015611769573d6000803e3d6000fd5b505050506040513d601f19601f8201168201806040525081019061178d919061582f565b6117d95760405162461bcd60e51b815260206004820152601760248201527f4661696c6564206d6f76652070726f6f6620636865636b0000000000000000006044820152606401610dc1565b505b604d5484111561182d5760405162461bcd60e51b815260206004820181905260248201527f417474656d7074696e6720746f206d6f7665206f7574206f6620626f756e64736044820152606401610dc1565b60008681526050602052604090205460ff166118545761184f86866000614364565b6118bb565b61185d86611c09565b6000868152605260205260409020546007116118bb5760405162461bcd60e51b815260206004820152601660248201527f506c616e657420697320726174652d6c696d69746564000000000000000000006044820152606401610dc1565b6118c487611c09565b604e546040517f37294be8000000000000000000000000000000000000000000000000000000008152600481018990526024810188905260448101859052606481018490526084810183905260a4810191909152604f60c4820152605060e48201526052610104820152605361012482015273__$f91f8136ead5b3d50c91f0037df53ed68a$__906337294be8906101440160006040518083038186803b15801561196e57600080fd5b505af4158015611982573d6000803e3d6000fd5b5050604e80549250905060006119978361584c565b91905055506119a461463f565b7f73589d8f04c4286010ba8cbf687f804de4f668cb96b2d8c73f310ceb90a48fc06001604e546119d491906156fb565b60405190815260200160405180910390a16001604e546119f491906156fb565b9c9b505050505050505050505050565b60098181548110611a1457600080fd5b600091825260209091200154905081565b6000546201000090046001600160a01b03163314611a735760405162461bcd60e51b815260206004820152601b60248201526000805160206159d18339815191526044820152606401610dc1565b60005b81518161ffff161015611b3457600160566000848461ffff1681518110611a9f57611a9f61570e565b6020026020010151815260200190815260200160002060006101000a81548160ff0219169083151502179055507f49242bfce54b0cca9d147b333457caa24bd4806c485d4bce89018f3cff4543a0828261ffff1681518110611b0357611b0361570e565b6020026020010151604051611b1a91815260200190565b60405180910390a180611b2c81615865565b915050611a76565b5050565b600a8181548110611a1457600080fd5b60088181548110611a1457600080fd5b60545460009060ff16611b6d57506001919050565b506001600160a01b031660009081526055602052604090205460ff1690565b6000546201000090046001600160a01b03163314611bda5760405162461bcd60e51b815260206004820152601b60248201526000805160206159d18339815191526044820152606401610dc1565b60405133904780156108fc02916000818181858888f19350505050158015611c06573d6000803e3d6000fd5b50565b611c1233611b58565b611c5e5760405162461bcd60e51b815260206004820152601960248201527f506c61796572206973206e6f742077686974656c6973746564000000000000006044820152606401610dc1565b600054600160b01b900460ff1615611ca95760405162461bcd60e51b815260206004820152600e60248201526d11d85b59481a5cc81c185d5cd95960921b6044820152606401610dc1565b6048544210611cec5760405162461bcd60e51b815260206004820152600f60248201526e11d85b59481a185d9948195b991959608a1b6044820152606401610dc1565b6040517f180287b700000000000000000000000000000000000000000000000000000000815260048101829052604f602482015260506044820152605260648201526053608482015273__$f91f8136ead5b3d50c91f0037df53ed68a$__9063180287b79060a40160006040518083038186803b158015611d6c57600080fd5b505af4158015611d80573d6000803e3d6000fd5b5050505050565b6000546201000090046001600160a01b03163314611dd55760405162461bcd60e51b815260206004820152601b60248201526000805160206159d18339815191526044820152606401610dc1565b600054600160b01b900460ff16611e2e5760405162461bcd60e51b815260206004820152601860248201527f47616d6520697320616c726561647920756e70617573656400000000000000006044820152606401610dc1565b6000805460ff60b01b19169055565b60606000611e4b84846156fb565b67ffffffffffffffff811115611e6357611e63614c84565b604051908082528060200260200182016040528015611e9657816020015b6060815260200190600190039081611e815790505b509050835b83811015611ef757611ec9604b8281548110611eb957611eb961570e565b9060005260206000200154613fa2565b82611ed487846156fb565b81518110611ee457611ee461570e565b6020908102919091010152600101611e9b565b5090505b92915050565b6040517f7d5c40c400000000000000000000000000000000000000000000000000000000815260506004820152602481018390526001600160a01b038216604482015260009073__$773590d194ef7af6149f5cd9ccb8db3ce0$__90637d5c40c490606401602060405180830381865af4158015611f83573d6000803e3d6000fd5b505050506040513d601f19601f82011682018060405250810190611fa7919061582f565b9392505050565b611fb661475c565b6040805160608101909152600c60036000835b8282101561205557604080516080810190915260148302850160046000835b82821015612042578382600502016040518060a00160405290816000820154815260200160018201548152602001600282015481526020016003820154815260200160048201548152505081526020019060010190611fe8565b5050505081526020019060010190611fc9565b50505050905090565b606061206a83836156fb565b67ffffffffffffffff81111561208257612082614c84565b6040519080825280602002602001820160405280156120ab578160200160208202803683370190505b509050825b82811015610fa157604c81815481106120cb576120cb61570e565b6000918252602090912001546001600160a01b0316826120eb86846156fb565b815181106120fb576120fb61570e565b6001600160a01b03909216602092830291909101909101526001016120b0565b600080548190600160b01b900460ff16156121695760405162461bcd60e51b815260206004820152600e60248201526d11d85b59481a5cc81c185d5cd95960921b6044820152606401610dc1565b60485442106121ac5760405162461bcd60e51b815260206004820152600f60248201526e11d85b59481a185d9948195b991959608a1b6044820152606401610dc1565b6121b584611c09565b6040517fc25c08940000000000000000000000000000000000000000000000000000000081526004810185905260248101849052604f604482015260506064820152600b6084820152600c60a482015273__$f91f8136ead5b3d50c91f0037df53ed68a$__9063c25c08949060c40160006040518083038186803b15801561223c57600080fd5b505af4158015612250573d6000803e3d6000fd5b505050507f1c3559377dd1e586346f593aa9785e8eea8298f2d2ce1c2ef50428563d8ba84c8460405161228591815260200190565b60405180910390a1509192909150565b6060600980548060200260200160405190810160405280929190818152602001828054801561108c5760200282019190600052602060002090815481526020019060010190808311611078575050505050905090565b60006122f633611b58565b6123425760405162461bcd60e51b815260206004820152601960248201527f506c61796572206973206e6f742077686974656c6973746564000000000000006044820152606401610dc1565b600054600160b01b900460ff161561238d5760405162461bcd60e51b815260206004820152600e60248201526d11d85b59481a5cc81c185d5cd95960921b6044820152606401610dc1565b60485442106123d05760405162461bcd60e51b815260206004820152600f60248201526e11d85b59481a185d9948195b991959608a1b6044820152606401610dc1565b600054600160b81b900460ff166124c4576040517f8eff895400000000000000000000000000000000000000000000000000000000815273__$6b78ae7bf09e0e72535be6401663f3a543$__90638eff895490612437908890889088908890600401615886565b602060405180830381865af4158015612454573d6000803e3d6000fd5b505050506040513d601f19601f82011682018060405250810190612478919061582f565b6124c45760405162461bcd60e51b815260206004820152601760248201527f4661696c656420696e69742070726f6f6620636865636b0000000000000000006044820152606401610dc1565b8151602080840151604080860151336000908152605190945292205490919060ff16156125335760405162461bcd60e51b815260206004820152601d60248201527f506c6179657220697320616c726561647920696e697469616c697a65640000006044820152606401610dc1565b60008381526050602052604090205460ff16156125925760405162461bcd60e51b815260206004820152601d60248201527f506c616e657420697320616c726561647920696e697469616c697a65640000006044820152606401610dc1565b604d5481111561260a5760405162461bcd60e51b815260206004820152603360248201527f496e69742072616469757320697320626967676572207468616e20746865206360448201527f757272656e7420776f726c6420726164697573000000000000000000000000006064820152608401610dc1565b60025482106126a75760405162461bcd60e51b815260206004820152604760248201527f496e6974206e6f7420616c6c6f77656420696e207065726c696e2076616c756560448201527f2067726561746572207468616e206f7220657175616c20746f2074686520746860648201527f726573686f6c6400000000000000000000000000000000000000000000000000608482015260a401610dc1565b336000818152605160205260408120805460ff19166001908117909155604c8054808301825592527f42859d4f253f4d4a28ee9a59f9c9683a9404da2c5d329c733ab84f150db798a890910180546001600160a01b0319169092179091556127129084908490614364565b6000838152604f6020526040902080546001600160a01b0319163317815561c35060049091015561274161463f565b60408051338152602081018590527f5765df5ce7cf4175ef997923b4936159dcf3cea059434dab4643214d690a2b95910160405180910390a150909695505050505050565b6000546201000090046001600160a01b031633146127d45760405162461bcd60e51b815260206004820152601b60248201526000805160206159d18339815191526044820152606401610dc1565b604855565b6000546201000090046001600160a01b031633146128275760405162461bcd60e51b815260206004820152601b60248201526000805160206159d18339815191526044820152606401610dc1565b600054600160b01b900460ff16156128815760405162461bcd60e51b815260206004820152601660248201527f47616d6520697320616c726561647920706175736564000000000000000000006044820152606401610dc1565b6000805460ff60b01b1916600160b01b179055565b6000546201000090046001600160a01b031633146128e45760405162461bcd60e51b815260206004820152601b60248201526000805160206159d18339815191526044820152606401610dc1565b6001600160a01b03811660009081526055602052604090205460ff166129725760405162461bcd60e51b815260206004820152602860248201527f506c6179657220776173206e6f742077686974656c697374656420746f20626560448201527f67696e20776974680000000000000000000000000000000000000000000000006064820152608401610dc1565b6001600160a01b0381166000908152605560205260408120805460ff191690555b605754811015612a8e57816001600160a01b0316605782815481106129ba576129ba61570e565b6000918252602090912001546001600160a01b031603612a8657605780546129e4906001906156fb565b815481106129f4576129f461570e565b600091825260209091200154605780546001600160a01b039092169183908110612a2057612a2061570e565b9060005260206000200160006101000a8154816001600160a01b0302191690836001600160a01b031602179055506057805480612a5f57612a5f615724565b600082815260209020810160001990810180546001600160a01b0319169055019055612a8e565b600101612993565b506040516001600160a01b03821681527f174a60240c15017df8e5dca25efc9b93ff1741112b58fdcf1ec3c6a42cef09d290602001611033565b6000546201000090046001600160a01b03163314612b165760405162461bcd60e51b815260206004820152601b60248201526000805160206159d18339815191526044820152606401610dc1565b6001600160a01b038116612b6c5760405162461bcd60e51b815260206004820152601660248201527f6e65774f776e65722063616e6e6f7420626520307830000000000000000000006044820152606401610dc1565b600080546001600160a01b0390921662010000027fffffffffffffffffffff0000000000000000000000000000000000000000ffff909216919091179055565b6000546201000090046001600160a01b03163314612bfa5760405162461bcd60e51b815260206004820152601b60248201526000805160206159d18339815191526044820152606401610dc1565b60005b8181101561142a5760556000848484818110612c1b57612c1b61570e565b9050602002016020810190612c309190614fac565b6001600160a01b0316815260208101919091526040016000205460ff16612d6557600160556000858585818110612c6957612c6961570e565b9050602002016020810190612c7e9190614fac565b6001600160a01b031681526020810191909152604001600020805460ff19169115159190911790556057838383818110612cba57612cba61570e565b9050602002016020810190612ccf9190614fac565b81546001810183556000928352602090922090910180546001600160a01b0319166001600160a01b039092169190911790557f535b8e6091a10d85f64d304e27aee63c9c2248b3fe72655394c56cf6c33e4014838383818110612d3457612d3461570e565b9050602002016020810190612d499190614fac565b6040516001600160a01b03909116815260200160405180910390a15b600101612bfd565b600054610100900460ff1615808015612d8d5750600054600160ff909116105b80612da75750303b158015612da7575060005460ff166001145b612e195760405162461bcd60e51b815260206004820152602e60248201527f496e697469616c697a61626c653a20636f6e747261637420697320616c72656160448201527f647920696e697469616c697a65640000000000000000000000000000000000006064820152608401610dc1565b6000805460ff191660011790558015612e3c576000805461ff0019166101001790555b8151600080546020808601516054805491151560ff19909216919091179055604086015160608701511515600160b81b027fffffffffffffffff00ffffffffffffffffffffffffffffffffffffffffffffff911515600160b01b0260ff60b01b196001600160a01b039097166201000002969096167fffffffffffffffffff000000000000000000000000000000000000000000ffff909416939093179490941793909316179055608083015160015560a083015160025560c083015160035560e08301516004556101008301516005556101208301516006556101408301516007556101608301518051612f35926008920190614789565b506101808201516048556101a08201516049556101c0820151604a55604051635dfd086d60e01b8152600b600482015273__$5ae0c2211b657f8a7ca51e0b14f2a8333d$__90635dfd086d9060240160006040518083038186803b158015612f9c57600080fd5b505af4158015612fb0573d6000803e3d6000fd5b505060405163e771ed6b60e01b8152600c600482015273__$5ae0c2211b657f8a7ca51e0b14f2a8333d$__925063e771ed6b915060240160006040518083038186803b158015612fff57600080fd5b505af4158015613013573d6000803e3d6000fd5b50506040805161010081018252600080825260208201819052918101829052606081018290526080810182905260a0810182905260c0810182905260e08101919091526130669250600a915060086147d4565b5060005b6008548110156130d65760096004546008838154811061308c5761308c61570e565b906000526020600020015463010000006130a691906158d7565b6130b091906158f9565b8154600181810184556000938452602090932001556130cf908261576e565b905061306a565b506130df61463f565b8015611b34576000805461ff0019169055604051600181527f7f26b83ff96e1f2b6a682f133852f6798a09c465da95921460cefb3847402498906020015b60405180910390a15050565b606061313583836156fb565b67ffffffffffffffff81111561314d5761314d614c84565b60405190808252806020026020018201604052801561318657816020015b613173614814565b81526020019060019003908161316b5790505b509050825b82811015610fa157604f6000604b83815481106131aa576131aa61570e565b90600052602060002001548152602001908152602001600020604051806101800160405290816000820160009054906101000a90046001600160a01b03166001600160a01b03166001600160a01b031681526020016001820154815260200160028201548152602001600382015481526020016004820154815260200160058201548152602001600682015481526020016007820160009054906101000a900460ff16600181111561325e5761325e614979565b600181111561326f5761326f614979565b81526008820154602082015260098201546040820152600a8201546060820152600b90910154608090910152826132a686846156fb565b815181106132b6576132b661570e565b602090810291909101015260010161318b565b60008181526050602052604090205460ff16151560011461332c5760405162461bcd60e51b815260206004820152601960248201527f506c616e6574206973206e6f7420696e697469616c697a6564000000000000006044820152606401610dc1565b61333581611c09565b6000818152604f60205260409020546001600160a01b031633146133c15760405162461bcd60e51b815260206004820152602160248201527f4f6e6c79206f776e65722063616e206275792068617420666f7220706c616e6560448201527f74000000000000000000000000000000000000000000000000000000000000006064820152608401610dc1565b6000818152605060205260408120600801546133e9906001901b670de0b6b3a76400006158f9565b90508034101561343b5760405162461bcd60e51b815260206004820152601760248201527f496e73756666696369656e742076616c75652073656e740000000000000000006044820152606401610dc1565b600082815260506020526040812060080180546001929061345d90849061576e565b90915550506040518281527f444d0a208ac492e147b2e0e5ffeeb6e6be2c122d95f3da8f45e26868785c84eb9060200161311d565b606061349e83836156fb565b67ffffffffffffffff8111156134b6576134b6614c84565b6040519080825280602002602001820160405280156134df578160200160208202803683370190505b509050825b82811015610fa157604b81815481106134ff576134ff61570e565b906000526020600020015482858361351791906156fb565b815181106135275761352761570e565b60209081029190910101526001016134e4565b6052602052816000526040600020818154811061355657600080fd5b6000918252602090912060049091020180546001820154600283015460039093015491945060ff16925084565b604b8181548110611a1457600080fd5b6060600a80548060200260200160405190810160405280929190818152602001828054801561108c5760200282019190600052602060002090815481526020019060010190808311611078575050505050905090565b600b81815481106135f957600080fd5b906000526020600020906009020160009150905080600001805461361c9061573a565b80601f01602080910402602001604051908101604052809291908181526020018280546136489061573a565b80156136955780601f1061366a57610100808354040283529160200191613695565b820191906000526020600020905b81548152906001019060200180831161367857829003601f168201915b5050505050908060010154908060020154908060030154908060040154908060050154908060060154908060070154908060080154905089565b6000546201000090046001600160a01b0316331461371d5760405162461bcd60e51b815260206004820152601b60248201526000805160206159d18339815191526044820152606401610dc1565b6001600160a01b03811660009081526055602052604090205460ff16156137865760405162461bcd60e51b815260206004820152601a60248201527f506c6179657220616c72656164792077686974656c69737465640000000000006044820152606401610dc1565b6000826040516020016137999190615910565b60408051601f1981840301815291815281516020928301206000818152605690935291205490915060ff166138105760405162461bcd60e51b815260206004820152600b60248201527f496e76616c6964206b65790000000000000000000000000000000000000000006044820152606401610dc1565b6001600160a01b03821660008181526055602090815260408083208054600160ff1991821681179092556057805492830190557fe8e5595d268aaa85b36c3557e9d96c14a4fffaee9f45bcae0c407968a710963090910180546001600160a01b031916861790558584526056835292819020805490931690925590519182527f535b8e6091a10d85f64d304e27aee63c9c2248b3fe72655394c56cf6c33e4014910160405180910390a1604080518281526001600160a01b03841660208201527f3e890667d9a687bf1457499482db45a57da29a5ff2baf085d1bf35555975bbf5910160405180910390a1505050565b604c818154811061391057600080fd5b6000918252602090912001546001600160a01b0316905081565b60006004547f30644e72e131a029b85045b68181585d2833e84879b9709143e1f593f000000161395a91906158d7565b909110919050565b600c826003811061397257600080fd5b60140201816004811061398457600080fd5b600502018054600182015460028301546003840154600490940154929550909350919085565b600054600160b01b900460ff16156139f55760405162461bcd60e51b815260206004820152600e60248201526d11d85b59481a5cc81c185d5cd95960921b6044820152606401610dc1565b6048544210613a385760405162461bcd60e51b815260206004820152600f60248201526e11d85b59481a185d9948195b991959608a1b6044820152606401610dc1565b60008281526050602052604090205460ff161515600114613a9b5760405162461bcd60e51b815260206004820152601960248201527f506c616e6574206973206e6f7420696e697469616c697a6564000000000000006044820152606401610dc1565b613aa482611c09565b6000828152604f60205260409020546001600160a01b03163314613b0a5760405162461bcd60e51b815260206004820152601e60248201527f4f6e6c79206f776e65722063616e2064656c656761746520706c616e657400006044820152606401610dc1565b613b148282611f01565b15613b615760405162461bcd60e51b815260206004820152601860248201527f506c616e657420616c72656164792064656c65676174656400000000000000006044820152606401610dc1565b600082815260506020908152604080832060090180546001810182559084529282902090920180546001600160a01b0319166001600160a01b0385169081179091558251858152918201527f843a291790c6bf4cb530efd7a7338dbef8bb1c23d50f1fbf31e0e784a45315d3910161311d565b60008082604051602001613be89190615910565b60408051601f1981840301815291815281516020928301206000908152605690925290205460ff169392505050565b600054610100900460ff1615808015613c375750600054600160ff909116105b80613c515750303b158015613c51575060005460ff166001145b613cc35760405162461bcd60e51b815260206004820152602e60248201527f496e697469616c697a61626c653a20636f6e747261637420697320616c72656160448201527f647920696e697469616c697a65640000000000000000000000000000000000006064820152608401610dc1565b6000805460ff191660011790558015613ce6576000805461ff0019166101001790555b600080546054805460ff19168615151790557fffffffffffffffff00000000000000000000000000000000000000000000ffff16620100006001600160a01b038716027fffffffffffffffff0000ffffffffffffffffffffffffffffffffffffffffffff1617600160b81b84151502179055640124b9a260604855600860498190556002604a55604080516101008101825263010000008152623fffd06020820152620fffc4918101919091526203ffc1606082015261ffc06080820152613fc060a0820152610fc060c08201526103c060e0820152613dc791908161488f565b50604051635dfd086d60e01b8152600b600482015273__$5ae0c2211b657f8a7ca51e0b14f2a8333d$__90635dfd086d9060240160006040518083038186803b158015613e1357600080fd5b505af4158015613e27573d6000803e3d6000fd5b505060405163e771ed6b60e01b8152600c600482015273__$5ae0c2211b657f8a7ca51e0b14f2a8333d$__925063e771ed6b915060240160006040518083038186803b158015613e7657600080fd5b505af4158015613e8a573d6000803e3d6000fd5b50506040805161010081018252600080825260208201819052918101829052606081018290526080810182905260a0810182905260c0810182905260e0810191909152613edd9250600a915060086147d4565b5060005b600854811015613f4d57600960045460088381548110613f0357613f0361570e565b90600052602060002001546301000000613f1d91906158d7565b613f2791906158f9565b815460018181018455600093845260209093200155613f46908261576e565b9050613ee1565b50613f5661463f565b8015613f9c576000805461ff0019169055604051600181527f7f26b83ff96e1f2b6a682f133852f6798a09c465da95921460cefb38474024989060200160405180910390a15b50505050565b60606000805b600084815260526020526040902054811015614028576000848152605260205260408120805483908110613fde57613fde61570e565b600091825260209091206001600490920201015460ff16801561400357614003614979565b036140165761401360018361576e565b91505b61402160018261576e565b9050613fa8565b508067ffffffffffffffff81111561404257614042614c84565b6040519080825280602002602001820160405280156140c457816020015b6140b16040518061010001604052806000815260200160006001600160a01b031681526020016000815260200160008152602001600081526020016000815260200160008152602001600081525090565b8152602001906001900390816140605790505b5091506000805b60008581526052602052604090205481101561420f5760008581526052602052604081208054839081106141015761410161570e565b600091825260209091206001600490920201015460ff16801561412657614126614979565b036141fd57600085815260526020526040812080546053929190849081106141505761415061570e565b600091825260208083206004928302015484528381019490945260409283019091208251610100810184528154815260018201546001600160a01b031694810194909452600281015492840192909252600382015460608401528101546080830152600581015460a0830152600681015460c08301526007015460e082015284518590849081106141e3576141e361570e565b602002602001018190525081806141f99061584c565b9250505b61420860018261576e565b90506140cb565b505050919050565b6000546201000090046001600160a01b031633146142655760405162461bcd60e51b815260206004820152601b60248201526000805160206159d18339815191526044820152606401610dc1565b6001600160a01b03811660009081526055602052604090205460ff16156142ce5760405162461bcd60e51b815260206004820152601a60248201527f506c6179657220616c72656164792077686974656c69737465640000000000006044820152606401610dc1565b6001600160a01b0381166000818152605560209081526040808320805460ff191660019081179091556057805491820181559093527fe8e5595d268aaa85b36c3557e9d96c14a4fffaee9f45bcae0c407968a710963090920180546001600160a01b0319168417905590519182527f535b8e6091a10d85f64d304e27aee63c9c2248b3fe72655394c56cf6c33e40149101611033565b61436d8361392a565b6143b95760405162461bcd60e51b815260206004820152601b60248201527f4e6f7420612076616c696420706c616e6574206c6f636174696f6e00000000006044820152606401610dc1565b6002546003546005546006546007546040517f39818ecc000000000000000000000000000000000000000000000000000000008152600481018990526024810188905260448101959095526064850193909352608484019190915260a483015260c4820152600860e4820152600b610104820152600090819073__$773590d194ef7af6149f5cd9ccb8db3ce0$__906339818ecc90610124016040805180830381865af415801561446e573d6000803e3d6000fd5b505050506040513d601f19601f82011682018060405250810190614492919061592c565b9150915082156145105781156145105760405162461bcd60e51b815260206004820152602560248201527f43616e206f6e6c7920696e697469616c697a65206f6e20706c616e6574206c6560448201527f76656c20300000000000000000000000000000000000000000000000000000006064820152608401610dc1565b6000858152604f602090815260408083206050909252909120600b805473__$f91f8136ead5b3d50c91f0037df53ed68a$__93639414ee0493909290918790811061455d5761455d61570e565b906000526020600020906009020188600154600254600354898b8f6040518b63ffffffff1660e01b815260040161459d9a99989796959493929190615960565b60006040518083038186803b1580156145b557600080fd5b505af41580156145c9573d6000803e3d6000fd5b5050604b8054600181810183556000929092527f17b0af156a929edf60c351f3df2d53ed643fdd750aef9eda90dc7c8759a104a801889055600a805491935091508490811061461a5761461a61570e565b906000526020600020016000828254614633919061576e565b90915550505050505050565b604c54604954604a546040517fc30403df000000000000000000000000000000000000000000000000000000008152600a60048201526009602482015260448101939093526064830191909152608482015273__$773590d194ef7af6149f5cd9ccb8db3ce0$__9063c30403df9060a401602060405180830381865af41580156146cd573d6000803e3d6000fd5b505050506040513d601f19601f820116820180604052508101906146f191906159b7565b604d55565b6040518061014001604052806000151581526020016000815260200160008152602001600081526020016000600281111561473357614733614979565b815260200160008152602001600081526020016000815260200160008152602001606081525090565b60405180606001604052806003905b6147736148d2565b81526020019060019003908161476b5790505090565b8280548282559060005260206000209081019282156147c4579160200282015b828111156147c45782518255916020019190600101906147a9565b506147d0929150614929565b5090565b8280548282559060005260206000209081019282156147c4579160200282015b828111156147c4578251829060ff169055916020019190600101906147f4565b60405180610180016040528060006001600160a01b031681526020016000815260200160008152602001600081526020016000815260200160008152602001600081526020016000600181111561486d5761486d614979565b8152602001600081526020016000815260200160008152602001600081525090565b8280548282559060005260206000209081019282156147c4579160200282015b828111156147c4578251829063ffffffff169055916020019190600101906148af565b60405180608001604052806004905b6149136040518060a0016040528060008152602001600081526020016000815260200160008152602001600081525090565b8152602001906001900390816148e15790505090565b5b808211156147d0576000815560010161492a565b60006020828403121561495057600080fd5b5035919050565b6000806040838503121561496a57600080fd5b50508035926020909101359150565b634e487b7160e01b600052602160045260246000fd5b6003811061499f5761499f614979565b9052565b60008151808452602080850194506020840160005b838110156149dd5781516001600160a01b0316875295820195908201906001016149b8565b509495945050505050565b600060208083018184528085518083526040925060408601915060408160051b87010184880160005b83811015614ab157888303603f19018552815180511515845261014081890151858a0152878201518886015260608083015190860152608080830151614a598288018261498f565b505060a0828101519086015260c0808301519086015260e08083015190860152610100808301519086015261012091820151918501819052614a9d818601836149a3565b968901969450505090860190600101614a11565b509098975050505050505050565b8015158114611c0657600080fd5b8035614ad881614abf565b919050565b600060208284031215614aef57600080fd5b8135611fa781614abf565b6020808252825182820181905260009190848201906040850190845b81811015614b3257835183529284019291840191600101614b16565b50909695505050505050565b80356001600160a01b0381168114614ad857600080fd5b60008060408385031215614b6857600080fd5b82359150614b7860208401614b3e565b90509250929050565b60005b83811015614b9c578181015183820152602001614b84565b50506000910152565b60008151808452614bbd816020860160208601614b81565b601f01601f19169290920160200192915050565b600060208083018184528085518083526040925060408601915060408160051b87010184880160005b83811015614ab157603f1989840301855281516101208151818652614c2182870182614ba5565b838b0151878c0152898401518a880152606080850151908801526080808501519088015260a0808501519088015260c0808501519088015260e0808501519088015261010093840151939096019290925250509386019390860190600101614bfa565b634e487b7160e01b600052604160045260246000fd5b6040516101e0810167ffffffffffffffff81118282101715614cbe57614cbe614c84565b60405290565b6040805190810167ffffffffffffffff81118282101715614cbe57614cbe614c84565b604051601f8201601f1916810167ffffffffffffffff81118282101715614d1057614d10614c84565b604052919050565b600082601f830112614d2957600080fd5b614d31614cc4565b806040840185811115614d4357600080fd5b845b81811015614d5d578035845260209384019301614d45565b509095945050505050565b600082601f830112614d7957600080fd5b614d81614cc4565b806080840185811115614d9357600080fd5b845b81811015614d5d57614da78782614d18565b8452602090930192604001614d95565b6000806000806101e0808688031215614dcf57600080fd5b614dd98787614d18565b9450614de88760408801614d68565b9350614df78760c08801614d18565b92508661011f870112614e0957600080fd5b60405160e0810181811067ffffffffffffffff82111715614e2c57614e2c614c84565b604052908601908088831115614e4157600080fd5b61010088015b83811015614e5f578035825260209182019101614e47565b5050809250505092959194509250565b600067ffffffffffffffff821115614e8957614e89614c84565b5060051b60200190565b60006020808385031215614ea657600080fd5b823567ffffffffffffffff811115614ebd57600080fd5b8301601f81018513614ece57600080fd5b8035614ee1614edc82614e6f565b614ce7565b81815260059190911b82018301908381019087831115614f0057600080fd5b928401925b82841015614f1e57833582529284019290840190614f05565b979650505050505050565b6002811061499f5761499f614979565b6000610180820190506001600160a01b038e1682528c60208301528b60408301528a60608301528960808301528860a08301528760c0830152614f7f60e0830188614f29565b856101008301528461012083015283610140830152826101608301529d9c50505050505050505050505050565b600060208284031215614fbe57600080fd5b611fa782614b3e565b60008151808452602080850194506020840160005b838110156149dd57815180518852838101516001600160a01b03168489015260408082015190890152606080820151908901526080808201519089015260a0808201519089015260c0808201519089015260e090810151908801526101009096019590820190600101614fdc565b600060208083016020845280855180835260408601915060408160051b87010192506020870160005b828110156150a157603f1988860301845261508f858351614fc7565b94509285019290850190600101615073565b5092979650505050505050565b610780810181836000805b600381101561512d57825184835b600481101561511357825180518352602080820151818501526040808301519085015260608083015190850152608091820151918401919091529092019160a0909101906001016150c7565b5050506102809390930192602092909201916001016150b9565b5050505092915050565b6020808252825182820181905260009190848201906040850190845b81811015614b325783516001600160a01b031683529284019291840191600101615153565b60008060008061016080868803121561519057600080fd5b61519a8787614d18565b94506151a98760408801614d68565b93506151b88760c08801614d18565b92508661011f8701126151ca57600080fd5b6040516060810181811067ffffffffffffffff82111715614e2c57614e2c614c84565b6000806020838503121561520057600080fd5b823567ffffffffffffffff8082111561521857600080fd5b818501915085601f83011261522c57600080fd5b81358181111561523b57600080fd5b8660208260051b850101111561525057600080fd5b60209290920196919550909350505050565b600082601f83011261527357600080fd5b81356020615283614edc83614e6f565b8083825260208201915060208460051b8701019350868411156152a557600080fd5b602086015b848110156152c157803583529183019183016152aa565b509695505050505050565b6000602082840312156152de57600080fd5b813567ffffffffffffffff808211156152f657600080fd5b908301906101e0828603121561530b57600080fd5b615313614c9a565b61531c83614b3e565b815261532a60208401614acd565b602082015261533b60408401614acd565b604082015261534c60608401614acd565b60608201526080830135608082015260a083013560a082015260c083013560c082015260e083013560e082015261010080840135818301525061012080840135818301525061014080840135818301525061016080840135838111156153b157600080fd5b6153bd88828701615262565b918301919091525061018083810135908201526101a080840135908201526101c09283013592810192909252509392505050565b602080825282518282018190526000919060409081850190868401855b828110156154b057815180516001600160a01b0316855280870151858801528581015186860152606080820151908601526080808201519086015260a0808201519086015260c0808201519086015260e08082015161546f82880182614f29565b50506101008181015190860152610120808201519086015261014080820151908601526101609081015190850152610180909301929085019060010161540e565b5091979650505050505050565b84815260808101600185106154d4576154d4614979565b84602083015283604083015282606083015295945050505050565b60006101208083526155038184018d614ba5565b602084019b909b52505060408101979097526060870195909552608086019390935260a085019190915260c084015260e083015261010090910152919050565b600082601f83011261555457600080fd5b813567ffffffffffffffff81111561556e5761556e614c84565b615581601f8201601f1916602001614ce7565b81815284602083860101111561559657600080fd5b816020850160208301376000918101602001919091529392505050565b600080604083850312156155c657600080fd5b823567ffffffffffffffff8111156155dd57600080fd5b6155e985828601615543565b925050614b7860208401614b3e565b6000610120820190508a15158252896020830152886040830152876060830152615625608083018861498f565b8560a08301528460c08301528360e0830152826101008301529a9950505050505050505050565b60006020828403121561565e57600080fd5b813567ffffffffffffffff81111561567557600080fd5b61568184828501615543565b949350505050565b60008060006060848603121561569e57600080fd5b6156a784614b3e565b925060208401356156b781614abf565b915060408401356156c781614abf565b809150509250925092565b602081526000611fa76020830184614fc7565b634e487b7160e01b600052601160045260246000fd5b81810381811115611efb57611efb6156e5565b634e487b7160e01b600052603260045260246000fd5b634e487b7160e01b600052603160045260246000fd5b600181811c9082168061574e57607f821691505b60208210810361161e57634e487b7160e01b600052602260045260246000fd5b80820180821115611efb57611efb6156e5565b8060005b6002811015613f9c578151845260209384019390910190600101615785565b8060005b6002811015613f9c576157bc848351615781565b60409390930192602091909101906001016157a8565b6101a081016157e18287615781565b6157ee60408301866157a4565b6157fb60c0830185615781565b61010082018360005b6005811015615823578151835260209283019290910190600101615804565b50505095945050505050565b60006020828403121561584157600080fd5b8151611fa781614abf565b60006001820161585e5761585e6156e5565b5060010190565b600061ffff80831681810361587c5761587c6156e5565b6001019392505050565b61016081016158958287615781565b6158a260408301866157a4565b6158af60c0830185615781565b61010082018360005b60038110156158235781518352602092830192909101906001016158b8565b6000826158f457634e487b7160e01b600052601260045260246000fd5b500490565b8082028115828204841417611efb57611efb6156e5565b60008251615922818460208701614b81565b9190910192915050565b6000806040838503121561593f57600080fd5b8251915060208301516002811061595557600080fd5b809150509250929050565b6000610140820190508b82528a60208301528960408301528860608301528760808301528660a08301528560c083015261599d60e0830186614f29565b610100820193909352610120015298975050505050505050565b6000602082840312156159c957600080fd5b505191905056fe53656e646572206973206e6f7420612067616d65206d61737465720000000000a26469706673582212200009782c6448eec345c35dd52e67a9d25a4648cb4427a627068367d4bb788bb464736f6c63430008180033",
  "linkReferences": {
    "contracts/DarkForestInitialize.sol": {
      "DarkForestInitialize": [
        {
          "length": 20,
          "start": 12205
        },
        {
          "length": 20,
          "start": 12302
        },
        {
          "length": 20,
          "start": 15908
        },
        {
          "length": 20,
          "start": 16005
        }
      ]
    },
    "contracts/DarkForestPlanet.sol": {
      "DarkForestPlanet": [
        {
          "length": 20,
          "start": 6526
        },
        {
          "length": 20,
          "start": 7549
        },
        {
          "length": 20,
          "start": 8781
        },
        {
          "length": 20,
          "start": 17781
        }
      ]
    },
    "contracts/DarkForestUtils.sol": {
      "DarkForestUtils": [
        {
          "length": 20,
          "start": 8079
        },
        {
          "length": 20,
          "start": 17530
        },
        {
          "length": 20,
          "start": 18137
        }
      ]
    },
    "contracts/Verifier.sol": {
      "Verifier": [
        {
          "length": 20,
          "start": 5975
        },
        {
          "length": 20,
          "start": 9295
        }
      ]
    }
  },
  "deployedLinkReferences": {
    "contracts/DarkForestInitialize.sol": {
      "DarkForestInitialize": [
        {
          "length": 20,
          "start": 12135
        },
        {
          "length": 20,
          "start": 12232
        },
        {
          "length": 20,
          "start": 15838
        },
        {
          "length": 20,
          "start": 15935
        }
      ]
    },
    "contracts/DarkForestPlanet.sol": {
      "DarkForestPlanet": [
        {
          "length": 20,
          "start": 6456
        },
        {
          "length": 20,
          "start": 7479
        },
        {
          "length": 20,
          "start": 8711
        },
        {
          "length": 20,
          "start": 17711
        }
      ]
    },
    "contracts/DarkForestUtils.sol": {
      "DarkForestUtils": [
        {
          "length": 20,
          "start": 8009
        },
        {
          "length": 20,
          "start": 17460
        },
        {
          "length": 20,
          "start": 18067
        }
      ]
    },
    "contracts/Verifier.sol": {
      "Verifier": [
        {
          "length": 20,
          "start": 5905
        },
        {
          "length": 20,
          "start": 9225
        }
      ]
    }
  }
}